{
  "_format": "hh-sol-artifact-1",
  "contractName": "DonationPortal",
  "sourceName": "contracts/WavePortal.sol",
  "abi": [
    {
      "inputs": [],
      "stateMutability": "nonpayable",
      "type": "constructor"
    },
    {
      "inputs": [
        {
          "internalType": "uint256",
          "name": "quantity",
          "type": "uint256"
        }
      ],
      "name": "donate",
      "outputs": [],
      "stateMutability": "nonpayable",
      "type": "function"
    },
    {
      "inputs": [],
      "name": "getDonations",
      "outputs": [
        {
          "internalType": "uint256",
          "name": "",
          "type": "uint256"
        }
      ],
      "stateMutability": "view",
      "type": "function"
    },
    {
      "inputs": [],
      "name": "getTotal",
      "outputs": [
        {
          "internalType": "uint256",
          "name": "",
          "type": "uint256"
        }
      ],
      "stateMutability": "view",
      "type": "function"
    }
  ],
  "bytecode": "0x608060405234801561001057600080fd5b506100596040518060400160405280601a81526020017f4465706c6f79656420646f6e6174696f6e7320706f7274616c2100000000000081525061005e60201b61015b1760201c565b6101e1565b6100fa81604051602401610072919061015f565b6040516020818303038152906040527f41304fac000000000000000000000000000000000000000000000000000000007bffffffffffffffffffffffffffffffffffffffffffffffffffffffff19166020820180517bffffffffffffffffffffffffffffffffffffffffffffffffffffffff83818316178352505050506100fd60201b60201c565b50565b60008151905060006a636f6e736f6c652e6c6f679050602083016000808483855afa5050505050565b600061013182610181565b61013b818561018c565b935061014b81856020860161019d565b610154816101d0565b840191505092915050565b600060208201905081810360008301526101798184610126565b905092915050565b600081519050919050565b600082825260208201905092915050565b60005b838110156101bb5780820151818401526020810190506101a0565b838111156101ca576000848401525b50505050565b6000601f19601f8301169050919050565b610696806101f06000396000f3fe608060405234801561001057600080fd5b50600436106100415760003560e01c8063775a25e314610046578063e25f841614610064578063f14faf6f14610082575b600080fd5b61004e61009e565b60405161005b919061049f565b60405180910390f35b61006c6100cf565b604051610079919061049f565b60405180910390f35b61009c60048036038101906100979190610373565b610100565b005b60006100c76040518060600160405280603181526020016105f3603191396000546001546101f4565b600154905090565b60006100f86040518060600160405280603181526020016105f3603191396000546001546101f4565b600054905090565b600160008082825461011291906104d6565b92505081905550806001600082825461012b91906104d6565b925050819055506101586040518060600160405280603d8152602001610624603d91393383600054610293565b50565b6101f18160405160240161016f91906103f3565b6040516020818303038152906040527f41304fac000000000000000000000000000000000000000000000000000000007bffffffffffffffffffffffffffffffffffffffffffffffffffffffff19166020820180517bffffffffffffffffffffffffffffffffffffffffffffffffffffffff8381831617835250505050610335565b50565b61028e83838360405160240161020c93929190610461565b6040516020818303038152906040527f969cdd03000000000000000000000000000000000000000000000000000000007bffffffffffffffffffffffffffffffffffffffffffffffffffffffff19166020820180517bffffffffffffffffffffffffffffffffffffffffffffffffffffffff8381831617835250505050610335565b505050565b61032f848484846040516024016102ad9493929190610415565b6040516020818303038152906040527fdaa394bd000000000000000000000000000000000000000000000000000000007bffffffffffffffffffffffffffffffffffffffffffffffffffffffff19166020820180517bffffffffffffffffffffffffffffffffffffffffffffffffffffffff8381831617835250505050610335565b50505050565b60008151905060006a636f6e736f6c652e6c6f679050602083016000808483855afa5050505050565b60008135905061036d816105db565b92915050565b60006020828403121561038557600080fd5b60006103938482850161035e565b91505092915050565b6103a58161052c565b82525050565b60006103b6826104ba565b6103c081856104c5565b93506103d0818560208601610568565b6103d9816105ca565b840191505092915050565b6103ed8161055e565b82525050565b6000602082019050818103600083015261040d81846103ab565b905092915050565b6000608082019050818103600083015261042f81876103ab565b905061043e602083018661039c565b61044b60408301856103e4565b61045860608301846103e4565b95945050505050565b6000606082019050818103600083015261047b81866103ab565b905061048a60208301856103e4565b61049760408301846103e4565b949350505050565b60006020820190506104b460008301846103e4565b92915050565b600081519050919050565b600082825260208201905092915050565b60006104e18261055e565b91506104ec8361055e565b9250827fffffffffffffffffffffffffffffffffffffffffffffffffffffffffffffffff038211156105215761052061059b565b5b828201905092915050565b60006105378261053e565b9050919050565b600073ffffffffffffffffffffffffffffffffffffffff82169050919050565b6000819050919050565b60005b8381101561058657808201518184015260208101905061056b565b83811115610595576000848401525b50505050565b7f4e487b7100000000000000000000000000000000000000000000000000000000600052601160045260246000fd5b6000601f19601f8301169050919050565b6105e48161055e565b81146105ef57600080fd5b5056fe5765206861766520256420746f74616c20646f6e6174696f6e732c207769746820612073756d206f66202564204554482125732068617320646f6e6174656420256421205765206861766520726563656976656420256420646f6e6174696f6e7320756e74696c20746f64617921a2646970667358221220eeb95c3b5bc34c1ccf0d5fe7483347878f35a26d8339e7172bbd4df96950fd1464736f6c63430008040033",
  "linkReferences": {},
  "deployedLinkReferences": {}
}